:100000000CC024C02AC022C021C020C01FC01EC0F6
:100010001DC01CC0EFF7E7F3E3F111241FBECFE9C9
:10002000CDBF20E0A4E6B0E001C01D92A636B20725
:10003000E1F710E0A0E6B0E0E8EDF3E002C00590E3
:100040000D92A436B107D9F784D0C4C1D9CF81E0CD
:1000500085BB80E28BBF789408951F920F920FB6F4
:100060000F9211248F9380916400816080936400CB
:100070008F910F900FBE0F901F9018958AB78062D6
:100080008ABF87B3807E87BB85B7877E806185BF47
:1000900085B7806285BF889585B78F7D85BF87B31B
:1000A0008E6187BBB898C09A0895CF93DF93109262
:1000B0006500809165008A30E0F4C6E0D0E0C5D0EC
:1000C000BE015BD0282F9927FC01EC5EFF4FE49125
:1000D000E8BB8FE995E00197F1F700C0000080913F
:1000E00065008F5F80936500809165008A3038F3EA
:1000F00001C020E0AFE7BBEB1197F1F700C00000B3
:1001000010926500809165008630E8F49FEFE22F41
:10011000F0E0EC5EFF4F98BBAFEBB2E11197F1F767
:1001200000C00000849188BBAFEBB2E11197F1F7FA
:1001300000C00000809165008F5F80936500809112
:100140006500863040F38FEF88BB98DFDF91CF9159
:10015000089587B38E6187BBB898C09A8FEF88BB2C
:1001600076DF8CDF8091640080FFFCCF809164009B
:100170008E7F8093640099DFF5CF97FB072E16F4EE
:10018000009406D077FD08D00BD007FC05D03EF4D4
:10019000909581959F4F0895709561957F4F089533
:1001A000AA1BBB1B51E107C0AA1FBB1FA617B7079D
:1001B00010F0A61BB70B881F991F5A95A9F78095B9
:1001C0009095BC01CD010895A0E0B0E0E9EEF0E02B
:1001D0008AC0EC01688179818A819B8161157105F2
:1001E0008105910521F464E279ED8BE597E02DE13D
:1001F00033EF41E050E038D049015A0127EA31E4B9
:1002000040E050E04DD069017A01C501B4012CEE07
:1002100034EF4FEF5FEF44D0022F132F9A01D70135
:10022000C601800F911FA21FB31FB7FF03C0019724
:10023000A109B04888839983AA83BB839F77CDB7F0
:10024000DD27ECE067C0C0DF089580E690E0BCDF0A
:100250000895A0E0B0E08093600090936100A093C7
:100260006200B09363000895052E97FB16F4009486
:100270000FD057FD05D05ED007FC02D046F408C071
:1002800050954095309521953F4F4F4F5F4F0895C2
:1002900090958095709561957F4F8F4F9F4F0895F2
:1002A00068940013E894A0E0B0E0E8E5F1E01DC038
:1002B000EFEFE7F959016A015E23550FEE08FE2CB6
:1002C00087019B01AC019E23990F660B762FCB0112
:1002D00053D0CDB7DD27EAE01FC02F923F924F9257
:1002E0005F926F927F928F929F92AF92BF92CF92C6
:1002F000DF92EF92FF920F931F93CF93DF93CDB7CF
:10030000CA1BCDBFDD2709942A88398848885F84B5
:100310006E847D848C849B84AA84B984C884DF80A5
:10032000EE80FD800C811B81AA81D981CE0FCDBFCB
:10033000CA2F0895A1E21A2EAA1BBB1BFD010DC0F6
:10034000AA1FBB1FEE1FFF1FA217B307E407F50785
:1003500020F0A21BB30BE40BF50B661F771F881F61
:10036000991F1A9469F760957095809590959B01F7
:10037000AC01BD01CF010895DF93CF939F92A0E41C
:100380009A2E0024D001E001F00116950795F7940C
:10039000E794D794C794B794A79448F41068A20F31
:1003A000B31FC41FD51FE61FF71F081E191E220FFB
:1003B000331F441F551F661F771F881F991F9A946C
:1003C00021F79D01AE01BF01C00111249F90CF9183
:0803D000DF910895F894FFCFBE
:0403D8000100000020
:00000001FF
